:100000000C943A000C9444000C9444000C9444006A
:100010000C9444000C9444000C9444000C94440050
:100020000C9444000C9444000C9444000C94440040
:100030000C9444000C9444000C9444000C94440030
:100040000C9444000C9444000C9444000C94440020
:100050000C9444000C9444000C9444000C94440010
:100060000C9444000C9444000C9444000C94440000
:100070000C94440011241FBECFEFD2E0DEBFCDBFF1
:100080000E9446000C9473020C940000CF93DF93FF
:10009000CDB7DEB76C970FB6F894DEBF0FBECDBFFD
:1000A0008AE290E02AE230E0F90120812160FC013F
:1000B00020838BE290E02BE230E0F9012081216087
:1000C000FC01208380E090E0AAE7B4E489839A836E
:1000D000AB83BC8320E030E048E453E469817A815B
:1000E0008B819C810E94D601DC01CB018D839E8394
:1000F000AF83B88720E030E040E85FE36D817E8128
:100100008F8198850E94500188232CF481E090E033
:100110009A8789873FC020E03FEF4FE757E46D8122
:100120007E818F8198850E94D10118164CF520E0C0
:1001300030E040E251E469817A818B819C810E94A8
:10014000D601DC01CB01BC01CD010E945501DC01CF
:10015000CB019A8789870FC084E190E09C878B87C9
:100160008B859C850197F1F79C878B8789859A857C
:1001700001979A87898789859A85892B69F714C0A1
:100180006D817E818F8198850E945501DC01CB01B4
:100190009A87898789859A859E878D878D859E8593
:1001A0000197F1F79E878D878BE290E02BE230E09C
:1001B000F90120812E7FFC01208380E090E0AAE7F6
:1001C000B4E48F87988BA98BBA8B20E030E048E4A9
:1001D00053E46F85788989899A890E94D601DC0168
:1001E000CB018B8B9C8BAD8BBE8B20E030E040E84D
:1001F0005FE36B897C898D899E890E9450018823E9
:100200002CF481E090E0988F8F8B3FC020E03FEF8F
:100210004FE757E46B897C898D899E890E94D101C3
:1002200018164CF520E030E040E251E46F85788903
:1002300089899A890E94D601DC01CB01BC01CD01DC
:100240000E945501DC01CB01988F8F8B0FC084E198
:1002500090E09A8F898F898D9A8D0197F1F79A8F07
:10026000898F8F89988D0197988F8F8B8F89988D23
:10027000892B69F714C06B897C898D899E890E94BE
:100280005501DC01CB01988F8F8B8F89988D9C8FC6
:100290008B8F8B8D9C8D0197F1F79C8F8B8F09CF66
:1002A0000E94840108F481E008950E94B00188F062
:1002B0009F5798F0B92F9927B751B0F0E1F0660F2A
:1002C000771F881F991F1AF0BA95C9F714C0B1306B
:1002D00091F00E94CA01B1E008950C94CA01672F01
:1002E000782F8827B85F39F0B93FCCF3869577959A
:1002F0006795B395D9F73EF4909580957095619583
:100300007F4F8F4F9F4F0895990F0008550FAA0BED
:10031000E0E8FEEF16161706E807F907C0F0121618
:100320001306E407F50798F0621B730B840B950B1B
:1003300039F40A2661F0232B242B252B21F4089570
:100340000A2609F4A140A6958FEF811D811D08950D
:1003500057FD9058440F551F59F05F3F71F0479576
:10036000880F97FB991F61F09F3F79F0879508955B
:10037000121613061406551FF2CF4695F1DF08C07A
:10038000161617061806991FF1CF86957105610597
:1003900008940895E894BB2766277727CB0197F93F
:1003A00008950E94840108F48FEF08950E94E801E7
:1003B0000C9462020E94540238F00E945B0220F00A
:1003C000952311F00C944B020C9451020C94CB0128
:1003D0000E94A80178F39923C9F35523B9F3950F27
:1003E00050E0551FAA27EE27FF27BB2700240894BB
:1003F000679520F4E20FF31FB41F0A1E220F331F6C
:10040000441FAA1F6695A9F7779530F4F30FB41F20
:100410000A1E121E08F46395330F441FAA1F221FE1
:10042000769599F7879520F4B40F0A1E121E631F64
:10043000440FAA1F221F331F8695A9F7862F712DFF
:10044000602D11249F5750409AF0F1F088234AF014
:10045000EE0FFF1FBB1F661F771F881F9150504074
:10046000A9F79E3F510580F00C944B020C94CB01F0
:100470005F3FE4F3983ED4F3869577956795B795FB
:10048000F795E7959F5FC1F7FE2B880F911D969515
:10049000879597F9089597F99F6780E870E060E085
:1004A00008959FEF80EC089500240A94161617060D
:1004B00018060906089500240A9412161306140655
:1004C00005060895092E0394000C11F4882352F0B8
:1004D000BB0F40F4BF2B11F460FF04C06F5F7F4F70
:0A04E0008F4F9F4F0895F894FFCF4F
:00000001FF
